{
  "abi": [
    {
      "inputs": [
        {
          "internalType": "contract IAIOracle",
          "name": "_aiOracle",
          "type": "address"
        },
        {
          "internalType": "string",
          "name": "_tokenName",
          "type": "string"
        },
        {
          "internalType": "string",
          "name": "_tokenSymbol",
          "type": "string"
        },
        {
          "internalType": "string",
          "name": "_prompt",
          "type": "string"
        },
        {
          "internalType": "uint256",
          "name": "_price",
          "type": "uint256"
        },
        {
          "internalType": "address",
          "name": "_creator",
          "type": "address"
        }
      ],
      "stateMutability": "nonpayable",
      "type": "constructor"
    },
    {
      "inputs": [
        {
          "internalType": "contract IAIOracle",
          "name": "expected",
          "type": "address"
        },
        {
          "internalType": "contract IAIOracle",
          "name": "found",
          "type": "address"
        }
      ],
      "name": "UnauthorizedCallbackSource",
      "type": "error"
    },
    {
      "anonymous": false,
      "inputs": [
        {
          "indexed": true,
          "internalType": "address",
          "name": "owner",
          "type": "address"
        },
        {
          "indexed": true,
          "internalType": "address",
          "name": "approved",
          "type": "address"
        },
        {
          "indexed": true,
          "internalType": "uint256",
          "name": "tokenId",
          "type": "uint256"
        }
      ],
      "name": "Approval",
      "type": "event"
    },
    {
      "anonymous": false,
      "inputs": [
        {
          "indexed": true,
          "internalType": "address",
          "name": "owner",
          "type": "address"
        },
        {
          "indexed": true,
          "internalType": "address",
          "name": "operator",
          "type": "address"
        },
        {
          "indexed": false,
          "internalType": "bool",
          "name": "approved",
          "type": "bool"
        }
      ],
      "name": "ApprovalForAll",
      "type": "event"
    },
    {
      "anonymous": false,
      "inputs": [
        {
          "indexed": false,
          "internalType": "uint256",
          "name": "_fromTokenId",
          "type": "uint256"
        },
        {
          "indexed": false,
          "internalType": "uint256",
          "name": "_toTokenId",
          "type": "uint256"
        }
      ],
      "name": "BatchMetadataUpdate",
      "type": "event"
    },
    {
      "anonymous": false,
      "inputs": [
        {
          "indexed": false,
          "internalType": "uint256",
          "name": "_tokenId",
          "type": "uint256"
        }
      ],
      "name": "MetadataUpdate",
      "type": "event"
    },
    {
      "anonymous": false,
      "inputs": [
        {
          "indexed": true,
          "internalType": "address",
          "name": "previousOwner",
          "type": "address"
        },
        {
          "indexed": true,
          "internalType": "address",
          "name": "newOwner",
          "type": "address"
        }
      ],
      "name": "OwnershipTransferred",
      "type": "event"
    },
    {
      "anonymous": false,
      "inputs": [
        {
          "indexed": true,
          "internalType": "address",
          "name": "from",
          "type": "address"
        },
        {
          "indexed": true,
          "internalType": "address",
          "name": "to",
          "type": "address"
        },
        {
          "indexed": true,
          "internalType": "uint256",
          "name": "tokenId",
          "type": "uint256"
        }
      ],
      "name": "Transfer",
      "type": "event"
    },
    {
      "anonymous": false,
      "inputs": [
        {
          "indexed": false,
          "internalType": "uint256",
          "name": "requestId",
          "type": "uint256"
        },
        {
          "indexed": false,
          "internalType": "address",
          "name": "sender",
          "type": "address"
        },
        {
          "indexed": false,
          "internalType": "uint256",
          "name": "modelId",
          "type": "uint256"
        },
        {
          "indexed": false,
          "internalType": "string",
          "name": "prompt",
          "type": "string"
        }
      ],
      "name": "promptRequest",
      "type": "event"
    },
    {
      "anonymous": false,
      "inputs": [
        {
          "indexed": false,
          "internalType": "uint256",
          "name": "requestId",
          "type": "uint256"
        },
        {
          "indexed": false,
          "internalType": "uint256",
          "name": "modelId",
          "type": "uint256"
        },
        {
          "indexed": false,
          "internalType": "string",
          "name": "input",
          "type": "string"
        },
        {
          "indexed": false,
          "internalType": "string",
          "name": "output",
          "type": "string"
        },
        {
          "indexed": false,
          "internalType": "bytes",
          "name": "callbackData",
          "type": "bytes"
        }
      ],
      "name": "promptsUpdated",
      "type": "event"
    },
    {
      "inputs": [],
      "name": "aiOracle",
      "outputs": [
        {
          "internalType": "contract IAIOracle",
          "name": "",
          "type": "address"
        }
      ],
      "stateMutability": "view",
      "type": "function"
    },
    {
      "inputs": [
        {
          "internalType": "uint256",
          "name": "requestId",
          "type": "uint256"
        },
        {
          "internalType": "bytes",
          "name": "output",
          "type": "bytes"
        },
        {
          "internalType": "bytes",
          "name": "callbackData",
          "type": "bytes"
        }
      ],
      "name": "aiOracleCallback",
      "outputs": [],
      "stateMutability": "nonpayable",
      "type": "function"
    },
    {
      "inputs": [
        {
          "internalType": "address",
          "name": "to",
          "type": "address"
        },
        {
          "internalType": "uint256",
          "name": "tokenId",
          "type": "uint256"
        }
      ],
      "name": "approve",
      "outputs": [],
      "stateMutability": "nonpayable",
      "type": "function"
    },
    {
      "inputs": [
        {
          "internalType": "address",
          "name": "owner",
          "type": "address"
        }
      ],
      "name": "balanceOf",
      "outputs": [
        {
          "internalType": "uint256",
          "name": "",
          "type": "uint256"
        }
      ],
      "stateMutability": "view",
      "type": "function"
    },
    {
      "inputs": [
        {
          "internalType": "string",
          "name": "_prompt",
          "type": "string"
        }
      ],
      "name": "calculateAIResult",
      "outputs": [],
      "stateMutability": "payable",
      "type": "function"
    },
    {
      "inputs": [
        {
          "internalType": "uint256",
          "name": "",
          "type": "uint256"
        }
      ],
      "name": "callbackGasLimit",
      "outputs": [
        {
          "internalType": "uint64",
          "name": "",
          "type": "uint64"
        }
      ],
      "stateMutability": "view",
      "type": "function"
    },
    {
      "inputs": [
        {
          "internalType": "uint256",
          "name": "modelId",
          "type": "uint256"
        }
      ],
      "name": "estimateFee",
      "outputs": [
        {
          "internalType": "uint256",
          "name": "",
          "type": "uint256"
        }
      ],
      "stateMutability": "view",
      "type": "function"
    },
    {
      "inputs": [
        {
          "internalType": "uint256",
          "name": "modelId",
          "type": "uint256"
        },
        {
          "internalType": "string",
          "name": "_prompt",
          "type": "string"
        }
      ],
      "name": "getAIResult",
      "outputs": [
        {
          "internalType": "string",
          "name": "",
          "type": "string"
        }
      ],
      "stateMutability": "view",
      "type": "function"
    },
    {
      "inputs": [
        {
          "internalType": "uint256",
          "name": "tokenId",
          "type": "uint256"
        }
      ],
      "name": "getApproved",
      "outputs": [
        {
          "internalType": "address",
          "name": "",
          "type": "address"
        }
      ],
      "stateMutability": "view",
      "type": "function"
    },
    {
      "inputs": [
        {
          "internalType": "address",
          "name": "owner",
          "type": "address"
        },
        {
          "internalType": "address",
          "name": "operator",
          "type": "address"
        }
      ],
      "name": "isApprovedForAll",
      "outputs": [
        {
          "internalType": "bool",
          "name": "",
          "type": "bool"
        }
      ],
      "stateMutability": "view",
      "type": "function"
    },
    {
      "inputs": [
        {
          "internalType": "uint256",
          "name": "requestId",
          "type": "uint256"
        }
      ],
      "name": "isFinalized",
      "outputs": [
        {
          "internalType": "bool",
          "name": "",
          "type": "bool"
        }
      ],
      "stateMutability": "view",
      "type": "function"
    },
    {
      "inputs": [
        {
          "internalType": "address",
          "name": "recipient",
          "type": "address"
        },
        {
          "internalType": "string",
          "name": "tokenURI",
          "type": "string"
        }
      ],
      "name": "mintNFT",
      "outputs": [
        {
          "internalType": "uint256",
          "name": "",
          "type": "uint256"
        }
      ],
      "stateMutability": "payable",
      "type": "function"
    },
    {
      "inputs": [],
      "name": "name",
      "outputs": [
        {
          "internalType": "string",
          "name": "",
          "type": "string"
        }
      ],
      "stateMutability": "view",
      "type": "function"
    },
    {
      "inputs": [],
      "name": "owner",
      "outputs": [
        {
          "internalType": "address",
          "name": "",
          "type": "address"
        }
      ],
      "stateMutability": "view",
      "type": "function"
    },
    {
      "inputs": [
        {
          "internalType": "uint256",
          "name": "tokenId",
          "type": "uint256"
        }
      ],
      "name": "ownerOf",
      "outputs": [
        {
          "internalType": "address",
          "name": "",
          "type": "address"
        }
      ],
      "stateMutability": "view",
      "type": "function"
    },
    {
      "inputs": [],
      "name": "price",
      "outputs": [
        {
          "internalType": "uint256",
          "name": "",
          "type": "uint256"
        }
      ],
      "stateMutability": "view",
      "type": "function"
    },
    {
      "inputs": [],
      "name": "prompt",
      "outputs": [
        {
          "internalType": "string",
          "name": "",
          "type": "string"
        }
      ],
      "stateMutability": "view",
      "type": "function"
    },
    {
      "inputs": [
        {
          "internalType": "uint256",
          "name": "",
          "type": "uint256"
        },
        {
          "internalType": "string",
          "name": "",
          "type": "string"
        }
      ],
      "name": "prompts",
      "outputs": [
        {
          "internalType": "string",
          "name": "",
          "type": "string"
        }
      ],
      "stateMutability": "view",
      "type": "function"
    },
    {
      "inputs": [
        {
          "internalType": "uint256",
          "name": "",
          "type": "uint256"
        }
      ],
      "name": "rarity",
      "outputs": [
        {
          "internalType": "uint8",
          "name": "",
          "type": "uint8"
        }
      ],
      "stateMutability": "view",
      "type": "function"
    },
    {
      "inputs": [],
      "name": "renounceOwnership",
      "outputs": [],
      "stateMutability": "nonpayable",
      "type": "function"
    },
    {
      "inputs": [
        {
          "internalType": "uint256",
          "name": "",
          "type": "uint256"
        }
      ],
      "name": "requests",
      "outputs": [
        {
          "internalType": "address",
          "name": "sender",
          "type": "address"
        },
        {
          "internalType": "uint256",
          "name": "modelId",
          "type": "uint256"
        },
        {
          "internalType": "bytes",
          "name": "input",
          "type": "bytes"
        },
        {
          "internalType": "bytes",
          "name": "output",
          "type": "bytes"
        }
      ],
      "stateMutability": "view",
      "type": "function"
    },
    {
      "inputs": [
        {
          "internalType": "address",
          "name": "from",
          "type": "address"
        },
        {
          "internalType": "address",
          "name": "to",
          "type": "address"
        },
        {
          "internalType": "uint256",
          "name": "tokenId",
          "type": "uint256"
        }
      ],
      "name": "safeTransferFrom",
      "outputs": [],
      "stateMutability": "nonpayable",
      "type": "function"
    },
    {
      "inputs": [
        {
          "internalType": "address",
          "name": "from",
          "type": "address"
        },
        {
          "internalType": "address",
          "name": "to",
          "type": "address"
        },
        {
          "internalType": "uint256",
          "name": "tokenId",
          "type": "uint256"
        },
        {
          "internalType": "bytes",
          "name": "data",
          "type": "bytes"
        }
      ],
      "name": "safeTransferFrom",
      "outputs": [],
      "stateMutability": "nonpayable",
      "type": "function"
    },
    {
      "inputs": [
        {
          "internalType": "address",
          "name": "operator",
          "type": "address"
        },
        {
          "internalType": "bool",
          "name": "approved",
          "type": "bool"
        }
      ],
      "name": "setApprovalForAll",
      "outputs": [],
      "stateMutability": "nonpayable",
      "type": "function"
    },
    {
      "inputs": [
        {
          "internalType": "uint64",
          "name": "gasLimit",
          "type": "uint64"
        }
      ],
      "name": "setCallbackGasLimit",
      "outputs": [],
      "stateMutability": "nonpayable",
      "type": "function"
    },
    {
      "inputs": [
        {
          "internalType": "bytes4",
          "name": "interfaceId",
          "type": "bytes4"
        }
      ],
      "name": "supportsInterface",
      "outputs": [
        {
          "internalType": "bool",
          "name": "",
          "type": "bool"
        }
      ],
      "stateMutability": "view",
      "type": "function"
    },
    {
      "inputs": [],
      "name": "symbol",
      "outputs": [
        {
          "internalType": "string",
          "name": "",
          "type": "string"
        }
      ],
      "stateMutability": "view",
      "type": "function"
    },
    {
      "inputs": [
        {
          "internalType": "uint256",
          "name": "tokenId",
          "type": "uint256"
        }
      ],
      "name": "tokenURI",
      "outputs": [
        {
          "internalType": "string",
          "name": "",
          "type": "string"
        }
      ],
      "stateMutability": "view",
      "type": "function"
    },
    {
      "inputs": [
        {
          "internalType": "address",
          "name": "from",
          "type": "address"
        },
        {
          "internalType": "address",
          "name": "to",
          "type": "address"
        },
        {
          "internalType": "uint256",
          "name": "tokenId",
          "type": "uint256"
        }
      ],
      "name": "transferFrom",
      "outputs": [],
      "stateMutability": "nonpayable",
      "type": "function"
    },
    {
      "inputs": [
        {
          "internalType": "address",
          "name": "newOwner",
          "type": "address"
        }
      ],
      "name": "transferOwnership",
      "outputs": [],
      "stateMutability": "nonpayable",
      "type": "function"
    }
  ],
  "bytecode": {
    "object": "0x60a06040523480156200001157600080fd5b5060405162002ddd38038062002ddd8339810160408190526200003491620002ba565b6001600160a01b038616608052848460006200005183826200040f565b5060016200006082826200040f565b5050506200007d62000077620000a860201b60201c565b620000ac565b60096200008b84826200040f565b50600b8290556200009c81620000fe565b505050505050620004db565b3390565b600780546001600160a01b038381166001600160a01b0319831681179093556040519116919082907f8be0079c531659141344cd1fd0a4f28419497f9722a3daafe3b4186f6b6457e090600090a35050565b6200010862000181565b6001600160a01b038116620001735760405162461bcd60e51b815260206004820152602660248201527f4f776e61626c653a206e6577206f776e657220697320746865207a65726f206160448201526564647265737360d01b60648201526084015b60405180910390fd5b6200017e81620000ac565b50565b6007546001600160a01b03163314620001dd5760405162461bcd60e51b815260206004820181905260248201527f4f776e61626c653a2063616c6c6572206973206e6f7420746865206f776e657260448201526064016200016a565b565b6001600160a01b03811681146200017e57600080fd5b634e487b7160e01b600052604160045260246000fd5b600082601f8301126200021d57600080fd5b81516001600160401b03808211156200023a576200023a620001f5565b604051601f8301601f19908116603f01168101908282118183101715620002655762000265620001f5565b816040528381526020925086838588010111156200028257600080fd5b600091505b83821015620002a6578582018301518183018401529082019062000287565b600093810190920192909252949350505050565b60008060008060008060c08789031215620002d457600080fd5b8651620002e181620001df565b60208801519096506001600160401b0380821115620002ff57600080fd5b6200030d8a838b016200020b565b965060408901519150808211156200032457600080fd5b620003328a838b016200020b565b955060608901519150808211156200034957600080fd5b506200035889828a016200020b565b9350506080870151915060a08701516200037281620001df565b809150509295509295509295565b600181811c908216806200039557607f821691505b602082108103620003b657634e487b7160e01b600052602260045260246000fd5b50919050565b601f8211156200040a57600081815260208120601f850160051c81016020861015620003e55750805b601f850160051c820191505b818110156200040657828155600101620003f1565b5050505b505050565b81516001600160401b038111156200042b576200042b620001f5565b62000443816200043c845462000380565b84620003bc565b602080601f8311600181146200047b5760008415620004625750858301515b600019600386901b1c1916600185901b17855562000406565b600085815260208120601f198616915b82811015620004ac578886015182559484019460019091019084016200048b565b5085821015620004cb5787850151600019600388901b60f8161c191681555b5050505050600190811b01905550565b6080516128c36200051a6000396000818161035101528181610830015281816109b101528181610e2f01528181610f420152610f7f01526128c36000f3fe6080604052600436106101cd5760003560e01c80637c65d711116100f7578063a22cb46511610095578063c87b56dd11610064578063c87b56dd1461058b578063e985e9c5146105ab578063eacabe14146105cb578063f2fde38b146105de57600080fd5b8063a22cb46514610518578063a267775414610538578063b03478141461054b578063b88d4fde1461056b57600080fd5b80638cbc52d9116100d15780638cbc52d9146104af5780638da5cb5b146104cf57806395d89b41146104ed578063a035b1fe1461050257600080fd5b80637c65d7111461042857806381d12c581461043d5780638b58c5691461046d57600080fd5b80632c6296b71161016f5780636352211e1161013e5780636352211e146103b35780636ec31914146103d357806370a08231146103f3578063715018a61461041357600080fd5b80632c6296b71461031f57806331b221cd1461033f57806333727c4d1461037357806342842e0e1461039357600080fd5b8063095ea7b3116101ab578063095ea7b314610261578063127e8e4d1461028357806320f38718146102b157806323b872dd146102ff57600080fd5b806301ffc9a7146101d257806306fdde0314610207578063081812fc14610229575b600080fd5b3480156101de57600080fd5b506101f26101ed366004611d9a565b6105fe565b60405190151581526020015b60405180910390f35b34801561021357600080fd5b5061021c610629565b6040516101fe9190611e07565b34801561023557600080fd5b50610249610244366004611e1a565b6106bb565b6040516001600160a01b0390911681526020016101fe565b34801561026d57600080fd5b5061028161027c366004611e4f565b6106e2565b005b34801561028f57600080fd5b506102a361029e366004611e1a565b6107fc565b6040519081526020016101fe565b3480156102bd57600080fd5b506102e76102cc366004611e1a565b600e602052600090815260409020546001600160401b031681565b6040516001600160401b0390911681526020016101fe565b34801561030b57600080fd5b5061028161031a366004611e79565b6108a2565b34801561032b57600080fd5b5061021c61033a366004611efd565b6108d3565b34801561034b57600080fd5b506102497f000000000000000000000000000000000000000000000000000000000000000081565b34801561037f57600080fd5b506101f261038e366004611e1a565b610998565b34801561039f57600080fd5b506102816103ae366004611e79565b610a24565b3480156103bf57600080fd5b506102496103ce366004611e1a565b610a3f565b3480156103df57600080fd5b506102816103ee366004611f48565b610a9f565b3480156103ff57600080fd5b506102a361040e366004611f71565b610af4565b34801561041f57600080fd5b50610281610b7a565b34801561043457600080fd5b5061021c610b8e565b34801561044957600080fd5b5061045d610458366004611e1a565b610c1c565b6040516101fe9493929190611f8c565b34801561047957600080fd5b5061049d610488366004611e1a565b600a6020526000908152604090205460ff1681565b60405160ff90911681526020016101fe565b3480156104bb57600080fd5b5061021c6104ca36600461207b565b610d5f565b3480156104db57600080fd5b506007546001600160a01b0316610249565b3480156104f957600080fd5b5061021c610d94565b34801561050e57600080fd5b506102a3600b5481565b34801561052457600080fd5b506102816105333660046120cf565b610da3565b610281610546366004612106565b610db2565b34801561055757600080fd5b50610281610566366004612147565b610f37565b34801561057757600080fd5b506102816105863660046121c0565b6110b7565b34801561059757600080fd5b5061021c6105a6366004611e1a565b6110ef565b3480156105b757600080fd5b506101f26105c636600461223b565b6111ff565b6102a36105d936600461226e565b61122d565b3480156105ea57600080fd5b506102816105f9366004611f71565b6112de565b60006001600160e01b03198216632483248360e11b1480610623575061062382611357565b92915050565b606060008054610638906122a5565b80601f0160208091040260200160405190810160405280929190818152602001828054610664906122a5565b80156106b15780601f10610686576101008083540402835291602001916106b1565b820191906000526020600020905b81548152906001019060200180831161069457829003601f168201915b5050505050905090565b60006106c6826113a7565b506000908152600460205260409020546001600160a01b031690565b60006106ed82610a3f565b9050806001600160a01b0316836001600160a01b03160361075f5760405162461bcd60e51b815260206004820152602160248201527f4552433732313a20617070726f76616c20746f2063757272656e74206f776e656044820152603960f91b60648201526084015b60405180910390fd5b336001600160a01b038216148061077b575061077b81336111ff565b6107ed5760405162461bcd60e51b815260206004820152603d60248201527f4552433732313a20617070726f76652063616c6c6572206973206e6f7420746f60448201527f6b656e206f776e6572206f7220617070726f76656420666f7220616c6c0000006064820152608401610756565b6107f78383611406565b505050565b6000818152600e6020526040808220549051620e1d8d60e41b8152600481018490526001600160401b0390911660248201527f00000000000000000000000000000000000000000000000000000000000000006001600160a01b03169062e1d8d090604401602060405180830381865afa15801561087e573d6000803e3d6000fd5b505050506040513d601f19601f8201168201806040525081019061062391906122df565b6108ac3382611474565b6108c85760405162461bcd60e51b8152600401610756906122f8565b6107f78383836114d2565b6060600c600085815260200190815260200160002083836040516108f8929190612345565b90815260200160405180910390208054610911906122a5565b80601f016020809104026020016040519081016040528092919081815260200182805461093d906122a5565b801561098a5780601f1061095f5761010080835404028352916020019161098a565b820191906000526020600020905b81548152906001019060200180831161096d57829003601f168201915b505050505090509392505050565b6040516333727c4d60e01b8152600481018290526000907f00000000000000000000000000000000000000000000000000000000000000006001600160a01b0316906333727c4d90602401602060405180830381865afa158015610a00573d6000803e3d6000fd5b505050506040513d601f19601f820116820180604052508101906106239190612355565b6107f7838383604051806020016040528060008152506110b7565b6000818152600260205260408120546001600160a01b0316806106235760405162461bcd60e51b8152602060048201526018602482015277115490cdcc8c4e881a5b9d985b1a59081d1bdad95b88125160421b6044820152606401610756565b610aa7611636565b6101f7600052600e6020527fbb30d1f19600e5735071bf8d7d31cd2b9fcd86a5806f09a0130a8247e2e33322805467ffffffffffffffff19166001600160401b0392909216919091179055565b60006001600160a01b038216610b5e5760405162461bcd60e51b815260206004820152602960248201527f4552433732313a2061646472657373207a65726f206973206e6f7420612076616044820152683634b21037bbb732b960b91b6064820152608401610756565b506001600160a01b031660009081526003602052604090205490565b610b82611636565b610b8c6000611690565b565b60098054610b9b906122a5565b80601f0160208091040260200160405190810160405280929190818152602001828054610bc7906122a5565b8015610c145780601f10610be957610100808354040283529160200191610c14565b820191906000526020600020905b815481529060010190602001808311610bf757829003601f168201915b505050505081565b600d602052600090815260409020805460018201546002830180546001600160a01b03909316939192610c4e906122a5565b80601f0160208091040260200160405190810160405280929190818152602001828054610c7a906122a5565b8015610cc75780601f10610c9c57610100808354040283529160200191610cc7565b820191906000526020600020905b815481529060010190602001808311610caa57829003601f168201915b505050505090806003018054610cdc906122a5565b80601f0160208091040260200160405190810160405280929190818152602001828054610d08906122a5565b8015610d555780601f10610d2a57610100808354040283529160200191610d55565b820191906000526020600020905b815481529060010190602001808311610d3857829003601f168201915b5050505050905084565b600c602090815260009283526040909220815180830184018051928152908401929093019190912091528054610b9b906122a5565b606060018054610638906122a5565b610dae3383836116e2565b5050565b600082828080601f01602080910402602001604051908101604052809392919081815260200183838082843760009201829052506101f7808252600e6020527fbb30d1f19600e5735071bf8d7d31cd2b9fcd86a5806f09a0130a8247e2e3332254604051632dca9c0360e11b815296975091956001600160a01b037f0000000000000000000000000000000000000000000000000000000000000000169550635b9538069450349350610e7592889130916001600160401b031690600401612372565b60206040518083038185885af1158015610e93573d6000803e3d6000fd5b50505050506040513d601f19601f82011682018060405250810190610eb891906122df565b6000818152600d6020526040902090915060028101610ed78482612412565b5080546001600160a01b0319163390811782556101f7600183018190556040517fa0faead83d70148ae18b694377f9bef079251342ab90e14af0f9ef68b891269f92610f289286928a908a906124fa565b60405180910390a15050505050565b336001600160a01b037f0000000000000000000000000000000000000000000000000000000000000000168114610fb45760405163432e033760e11b81526001600160a01b037f00000000000000000000000000000000000000000000000000000000000000008116600483015282166024820152604401610756565b6000868152600d6020526040902080546001600160a01b031661100e5760405162461bcd60e51b815260206004820152601260248201527172657175657374206e6f742065786973747360701b6044820152606401610756565b6003810161101d868883612528565b508585600c6000846001015481526020019081526020016000208360020160405161104891906125e8565b90815260200160405180910390209182611063929190612528565b507faf2b2381ddcb18a2b18a7826186fd216acdd9c852a8c7a9a49e7eab127f96ccf87826001015483600201898989896040516110a6979695949392919061265e565b60405180910390a150505050505050565b6110c13383611474565b6110dd5760405162461bcd60e51b8152600401610756906122f8565b6110e9848484846117b0565b50505050565b60606110fa826113a7565b60008281526006602052604081208054611113906122a5565b80601f016020809104026020016040519081016040528092919081815260200182805461113f906122a5565b801561118c5780601f106111615761010080835404028352916020019161118c565b820191906000526020600020905b81548152906001019060200180831161116f57829003601f168201915b5050505050905060006111aa60408051602081019091526000815290565b905080516000036111bc575092915050565b8151156111ee5780826040516020016111d6929190612724565b60405160208183030381529060405292505050919050565b6111f7846117e3565b949350505050565b6001600160a01b03918216600090815260056020908152604080832093909416825291909152205460ff1690565b6000600b5434146112805760405162461bcd60e51b815260206004820152601860248201527f496e636f7272656374204554482076616c75652073656e7400000000000000006044820152606401610756565b61128e600880546001019055565b600061129960085490565b90506112a3611856565b6000828152600a60205260409020805460ff191660ff929092169190911790556112cd84826118c3565b6112d78184611a4e565b9392505050565b6112e6611636565b6001600160a01b03811661134b5760405162461bcd60e51b815260206004820152602660248201527f4f776e61626c653a206e6577206f776e657220697320746865207a65726f206160448201526564647265737360d01b6064820152608401610756565b61135481611690565b50565b60006001600160e01b031982166380ac58cd60e01b148061138857506001600160e01b03198216635b5e139f60e01b145b8061062357506301ffc9a760e01b6001600160e01b0319831614610623565b6000818152600260205260409020546001600160a01b03166113545760405162461bcd60e51b8152602060048201526018602482015277115490cdcc8c4e881a5b9d985b1a59081d1bdad95b88125160421b6044820152606401610756565b600081815260046020526040902080546001600160a01b0319166001600160a01b038416908117909155819061143b82610a3f565b6001600160a01b03167f8c5be1e5ebec7d5bd14f71427d1e84f3dd0314c0f7b2291e5b200ac8c7c3b92560405160405180910390a45050565b60008061148083610a3f565b9050806001600160a01b0316846001600160a01b031614806114a757506114a781856111ff565b806111f75750836001600160a01b03166114c0846106bb565b6001600160a01b031614949350505050565b826001600160a01b03166114e582610a3f565b6001600160a01b03161461150b5760405162461bcd60e51b815260040161075690612753565b6001600160a01b03821661156d5760405162461bcd60e51b8152602060048201526024808201527f4552433732313a207472616e7366657220746f20746865207a65726f206164646044820152637265737360e01b6064820152608401610756565b826001600160a01b031661158082610a3f565b6001600160a01b0316146115a65760405162461bcd60e51b815260040161075690612753565b600081815260046020908152604080832080546001600160a01b03199081169091556001600160a01b0387811680865260038552838620805460001901905590871680865283862080546001019055868652600290945282852080549092168417909155905184937fddf252ad1be2c89b69c2b068fc378daa952ba7f163c4a11628f55a4df523b3ef91a4505050565b6007546001600160a01b03163314610b8c5760405162461bcd60e51b815260206004820181905260248201527f4f776e61626c653a2063616c6c6572206973206e6f7420746865206f776e65726044820152606401610756565b600780546001600160a01b038381166001600160a01b0319831681179093556040519116919082907f8be0079c531659141344cd1fd0a4f28419497f9722a3daafe3b4186f6b6457e090600090a35050565b816001600160a01b0316836001600160a01b0316036117435760405162461bcd60e51b815260206004820152601960248201527f4552433732313a20617070726f766520746f2063616c6c6572000000000000006044820152606401610756565b6001600160a01b03838116600081815260056020908152604080832094871680845294825291829020805460ff191686151590811790915591519182527f17307eab39ab6107e8899845ad3d59bd9653f200f220920489ca2b5937696c31910160405180910390a3505050565b6117bb8484846114d2565b6117c784848484611b19565b6110e95760405162461bcd60e51b815260040161075690612798565b60606117ee826113a7565b600061180560408051602081019091526000815290565b9050600081511161182557604051806020016040528060008152506112d7565b8061182f84611c1a565b604051602001611840929190612724565b6040516020818303038152906040529392505050565b60008043423360405160200161189193929190928352602083019190915260601b6bffffffffffffffffffffffff1916604082015260540190565b60408051601f198184030181529190528051602090910120905060006118b86064836127ea565b6112d790600161280c565b6001600160a01b0382166119195760405162461bcd60e51b815260206004820181905260248201527f4552433732313a206d696e7420746f20746865207a65726f20616464726573736044820152606401610756565b6000818152600260205260409020546001600160a01b03161561197e5760405162461bcd60e51b815260206004820152601c60248201527f4552433732313a20746f6b656e20616c7265616479206d696e746564000000006044820152606401610756565b6000818152600260205260409020546001600160a01b0316156119e35760405162461bcd60e51b815260206004820152601c60248201527f4552433732313a20746f6b656e20616c7265616479206d696e746564000000006044820152606401610756565b6001600160a01b038216600081815260036020908152604080832080546001019055848352600290915280822080546001600160a01b0319168417905551839291907fddf252ad1be2c89b69c2b068fc378daa952ba7f163c4a11628f55a4df523b3ef908290a45050565b6000828152600260205260409020546001600160a01b0316611ac95760405162461bcd60e51b815260206004820152602e60248201527f45524337323155524953746f726167653a2055524920736574206f66206e6f6e60448201526d32bc34b9ba32b73a103a37b5b2b760911b6064820152608401610756565b6000828152600660205260409020611ae18282612412565b506040518281527ff8e1a15aba9398e019f0b49df1a4fde98ee17ae345cb5f6b5e2c27f5033e8ce79060200160405180910390a15050565b60006001600160a01b0384163b15611c0f57604051630a85bd0160e11b81526001600160a01b0385169063150b7a0290611b5d903390899088908890600401612833565b6020604051808303816000875af1925050508015611b98575060408051601f3d908101601f19168201909252611b9591810190612870565b60015b611bf5573d808015611bc6576040519150601f19603f3d011682016040523d82523d6000602084013e611bcb565b606091505b508051600003611bed5760405162461bcd60e51b815260040161075690612798565b805181602001fd5b6001600160e01b031916630a85bd0160e11b1490506111f7565b506001949350505050565b60606000611c2783611cac565b60010190506000816001600160401b03811115611c4657611c46611fd0565b6040519080825280601f01601f191660200182016040528015611c70576020820181803683370190505b5090508181016020015b600019016f181899199a1a9b1b9c1cb0b131b232b360811b600a86061a8153600a8504945084611c7a57509392505050565b60008072184f03e93ff9f4daa797ed6e38ed64bf6a1f0160401b8310611ceb5772184f03e93ff9f4daa797ed6e38ed64bf6a1f0160401b830492506040015b6d04ee2d6d415b85acef81000000008310611d17576d04ee2d6d415b85acef8100000000830492506020015b662386f26fc100008310611d3557662386f26fc10000830492506010015b6305f5e1008310611d4d576305f5e100830492506008015b6127108310611d6157612710830492506004015b60648310611d73576064830492506002015b600a83106106235760010192915050565b6001600160e01b03198116811461135457600080fd5b600060208284031215611dac57600080fd5b81356112d781611d84565b60005b83811015611dd2578181015183820152602001611dba565b50506000910152565b60008151808452611df3816020860160208601611db7565b601f01601f19169290920160200192915050565b6020815260006112d76020830184611ddb565b600060208284031215611e2c57600080fd5b5035919050565b80356001600160a01b0381168114611e4a57600080fd5b919050565b60008060408385031215611e6257600080fd5b611e6b83611e33565b946020939093013593505050565b600080600060608486031215611e8e57600080fd5b611e9784611e33565b9250611ea560208501611e33565b9150604084013590509250925092565b60008083601f840112611ec757600080fd5b5081356001600160401b03811115611ede57600080fd5b602083019150836020828501011115611ef657600080fd5b9250929050565b600080600060408486031215611f1257600080fd5b8335925060208401356001600160401b03811115611f2f57600080fd5b611f3b86828701611eb5565b9497909650939450505050565b600060208284031215611f5a57600080fd5b81356001600160401b03811681146112d757600080fd5b600060208284031215611f8357600080fd5b6112d782611e33565b60018060a01b0385168152836020820152608060408201526000611fb36080830185611ddb565b8281036060840152611fc58185611ddb565b979650505050505050565b634e487b7160e01b600052604160045260246000fd5b60006001600160401b038084111561200057612000611fd0565b604051601f8501601f19908116603f0116810190828211818310171561202857612028611fd0565b8160405280935085815286868601111561204157600080fd5b858560208301376000602087830101525050509392505050565b600082601f83011261206c57600080fd5b6112d783833560208501611fe6565b6000806040838503121561208e57600080fd5b8235915060208301356001600160401b038111156120ab57600080fd5b6120b78582860161205b565b9150509250929050565b801515811461135457600080fd5b600080604083850312156120e257600080fd5b6120eb83611e33565b915060208301356120fb816120c1565b809150509250929050565b6000806020838503121561211957600080fd5b82356001600160401b0381111561212f57600080fd5b61213b85828601611eb5565b90969095509350505050565b60008060008060006060868803121561215f57600080fd5b8535945060208601356001600160401b038082111561217d57600080fd5b61218989838a01611eb5565b909650945060408801359150808211156121a257600080fd5b506121af88828901611eb5565b969995985093965092949392505050565b600080600080608085870312156121d657600080fd5b6121df85611e33565b93506121ed60208601611e33565b92506040850135915060608501356001600160401b0381111561220f57600080fd5b8501601f8101871361222057600080fd5b61222f87823560208401611fe6565b91505092959194509250565b6000806040838503121561224e57600080fd5b61225783611e33565b915061226560208401611e33565b90509250929050565b6000806040838503121561228157600080fd5b61228a83611e33565b915060208301356001600160401b038111156120ab57600080fd5b600181811c908216806122b957607f821691505b6020821081036122d957634e487b7160e01b600052602260045260246000fd5b50919050565b6000602082840312156122f157600080fd5b5051919050565b6020808252602d908201527f4552433732313a2063616c6c6572206973206e6f7420746f6b656e206f776e6560408201526c1c881bdc88185c1c1c9bdd9959609a1b606082015260800190565b8183823760009101908152919050565b60006020828403121561236757600080fd5b81516112d7816120c1565b84815260a06020820152600061238b60a0830186611ddb565b6001600160a01b03949094166040830152506001600160401b039190911660608201528082036080909101526000815260200192915050565b601f8211156107f757600081815260208120601f850160051c810160208610156123eb5750805b601f850160051c820191505b8181101561240a578281556001016123f7565b505050505050565b81516001600160401b0381111561242b5761242b611fd0565b61243f8161243984546122a5565b846123c4565b602080601f831160018114612474576000841561245c5750858301515b600019600386901b1c1916600185901b17855561240a565b600085815260208120601f198616915b828110156124a357888601518255948401946001909101908401612484565b50858210156124c15787850151600019600388901b60f8161c191681555b5050505050600190811b01905550565b81835281816020850137506000828201602090810191909152601f909101601f19169091010190565b85815260018060a01b0385166020820152836040820152608060608201526000611fc56080830184866124d1565b6001600160401b0383111561253f5761253f611fd0565b6125538361254d83546122a5565b836123c4565b6000601f841160018114612587576000851561256f5750838201355b600019600387901b1c1916600186901b1783556125e1565b600083815260209020601f19861690835b828110156125b85786850135825560209485019460019092019101612598565b50868210156125d55760001960f88860031b161c19848701351681555b505060018560011b0183555b5050505050565b60008083546125f6816122a5565b6001828116801561260e576001811461262357612652565b60ff1984168752821515830287019450612652565b8760005260208060002060005b858110156126495781548a820152908401908201612630565b50505082870194505b50929695505050505050565b87815260006020888184015260a060408401526000885461267e816122a5565b8060a087015260c06001808416600081146126a057600181146126ba576126e8565b60ff1985168984015283151560051b8901830195506126e8565b8d6000528660002060005b858110156126e05781548b82018601529083019088016126c5565b8a0184019650505b5050505050838103606085015261270081888a6124d1565b91505082810360808401526127168185876124d1565b9a9950505050505050505050565b60008351612736818460208801611db7565b83519083019061274a818360208801611db7565b01949350505050565b60208082526025908201527f4552433732313a207472616e736665722066726f6d20696e636f72726563742060408201526437bbb732b960d91b606082015260800190565b60208082526032908201527f4552433732313a207472616e7366657220746f206e6f6e20455243373231526560408201527131b2b4bb32b91034b6b83632b6b2b73a32b960711b606082015260800190565b60008261280757634e487b7160e01b600052601260045260246000fd5b500690565b60ff818116838216019081111561062357634e487b7160e01b600052601160045260246000fd5b6001600160a01b038581168252841660208201526040810183905260806060820181905260009061286690830184611ddb565b9695505050505050565b60006020828403121561288257600080fd5b81516112d781611d8456fea26469706673582212202ace03566adc958099f5f28fd05f0d1a7c9fd63f3b4f5c7137d6df990600caa564736f6c63430008140033",
    "linkReferences": {}
  },
  "methodIdentifiers": {
    "aiOracle()": "31b221cd",
    "aiOracleCallback(uint256,bytes,bytes)": "b0347814",
    "approve(address,uint256)": "095ea7b3",
    "balanceOf(address)": "70a08231",
    "calculateAIResult(string)": "a2677754",
    "callbackGasLimit(uint256)": "20f38718",
    "estimateFee(uint256)": "127e8e4d",
    "getAIResult(uint256,string)": "2c6296b7",
    "getApproved(uint256)": "081812fc",
    "isApprovedForAll(address,address)": "e985e9c5",
    "isFinalized(uint256)": "33727c4d",
    "mintNFT(address,string)": "eacabe14",
    "name()": "06fdde03",
    "owner()": "8da5cb5b",
    "ownerOf(uint256)": "6352211e",
    "price()": "a035b1fe",
    "prompt()": "7c65d711",
    "prompts(uint256,string)": "8cbc52d9",
    "rarity(uint256)": "8b58c569",
    "renounceOwnership()": "715018a6",
    "requests(uint256)": "81d12c58",
    "safeTransferFrom(address,address,uint256)": "42842e0e",
    "safeTransferFrom(address,address,uint256,bytes)": "b88d4fde",
    "setApprovalForAll(address,bool)": "a22cb465",
    "setCallbackGasLimit(uint64)": "6ec31914",
    "supportsInterface(bytes4)": "01ffc9a7",
    "symbol()": "95d89b41",
    "tokenURI(uint256)": "c87b56dd",
    "transferFrom(address,address,uint256)": "23b872dd",
    "transferOwnership(address)": "f2fde38b"
  },
  "id": 18
}