{
  "abi": [
    {
      "anonymous": false,
      "inputs": [
        {
          "indexed": true,
          "internalType": "address",
          "name": "nftContract",
          "type": "address"
        },
        {
          "indexed": false,
          "internalType": "string",
          "name": "name",
          "type": "string"
        },
        {
          "indexed": false,
          "internalType": "string",
          "name": "symbol",
          "type": "string"
        },
        {
          "indexed": false,
          "internalType": "address",
          "name": "creator",
          "type": "address"
        }
      ],
      "name": "NFTContractCreated",
      "type": "event"
    },
    {
      "inputs": [
        {
          "internalType": "string",
          "name": "name",
          "type": "string"
        },
        {
          "internalType": "string",
          "name": "symbol",
          "type": "string"
        },
        {
          "internalType": "string",
          "name": "_prompt",
          "type": "string"
        },
        {
          "internalType": "uint256",
          "name": "_price",
          "type": "uint256"
        }
      ],
      "name": "createNFT",
      "outputs": [],
      "stateMutability": "nonpayable",
      "type": "function"
    },
    {
      "inputs": [
        {
          "internalType": "uint256",
          "name": "",
          "type": "uint256"
        }
      ],
      "name": "deployedNFTs",
      "outputs": [
        {
          "internalType": "address",
          "name": "",
          "type": "address"
        }
      ],
      "stateMutability": "view",
      "type": "function"
    },
    {
      "inputs": [],
      "name": "getDeployedNFTs",
      "outputs": [
        {
          "internalType": "address[]",
          "name": "",
          "type": "address[]"
        }
      ],
      "stateMutability": "view",
      "type": "function"
    }
  ],
  "bytecode": {
    "object": "0x608060405234801561001057600080fd5b50613367806100206000396000f3fe60806040523480156200001157600080fd5b5060043610620000465760003560e01c806313df8223146200004b578063b8889e64146200007f578063ca1e217f1462000098575b600080fd5b620000626200005c3660046200023b565b620000b1565b6040516001600160a01b0390911681526020015b60405180910390f35b62000089620000dc565b60405162000076919062000255565b620000af620000a93660046200034f565b62000140565b005b60008181548110620000c257600080fd5b6000918252602090912001546001600160a01b0316905081565b606060008054806020026020016040519081016040528092919081815260200182805480156200013657602002820191906000526020600020905b81546001600160a01b0316815260019091019060200180831162000117575b5050505050905090565b6000730a0f4321214bb6c7811dd8a71cf587bdaf03f0a085858585336040516200016a906200022d565b6200017b9695949392919062000431565b604051809103906000f08015801562000198573d6000803e3d6000fd5b50600080546001810182559080527f290decd9548b62a8d60345a988386fc84ba6bc95484008f6362f93160ef3e5630180546001600160a01b0319166001600160a01b038316908117909155604051919250907f580cfa47423e476ea9ca65ff917aaded66bc9b0257ff4265fad1b510762f09e9906200021e908890889033906200049b565b60405180910390a25050505050565b612e5480620004de83390190565b6000602082840312156200024e57600080fd5b5035919050565b6020808252825182820181905260009190848201906040850190845b81811015620002985783516001600160a01b03168352928401929184019160010162000271565b50909695505050505050565b634e487b7160e01b600052604160045260246000fd5b600082601f830112620002cc57600080fd5b813567ffffffffffffffff80821115620002ea57620002ea620002a4565b604051601f8301601f19908116603f01168101908282118183101715620003155762000315620002a4565b816040528381528660208588010111156200032f57600080fd5b836020870160208301376000602085830101528094505050505092915050565b600080600080608085870312156200036657600080fd5b843567ffffffffffffffff808211156200037f57600080fd5b6200038d88838901620002ba565b95506020870135915080821115620003a457600080fd5b620003b288838901620002ba565b94506040870135915080821115620003c957600080fd5b50620003d887828801620002ba565b949793965093946060013593505050565b6000815180845260005b818110156200041157602081850181015186830182015201620003f3565b506000602082860101526020601f19601f83011685010191505092915050565b600060018060a01b03808916835260c060208401526200045560c0840189620003e9565b8381036040850152620004698189620003e9565b905083810360608501526200047f8188620003e9565b6080850196909652509290921660a09091015250949350505050565b606081526000620004b06060830186620003e9565b8281036020840152620004c48186620003e9565b91505060018060a01b038316604083015294935050505056fe60a06040523480156200001157600080fd5b5060405162002e5438038062002e548339810160408190526200003491620002ba565b6001600160a01b038616608052848460006200005183826200040f565b5060016200006082826200040f565b5050506200007d62000077620000a860201b60201c565b620000ac565b60096200008b84826200040f565b50600b8290556200009c81620000fe565b505050505050620004db565b3390565b600780546001600160a01b038381166001600160a01b0319831681179093556040519116919082907f8be0079c531659141344cd1fd0a4f28419497f9722a3daafe3b4186f6b6457e090600090a35050565b6200010862000181565b6001600160a01b038116620001735760405162461bcd60e51b815260206004820152602660248201527f4f776e61626c653a206e6577206f776e657220697320746865207a65726f206160448201526564647265737360d01b60648201526084015b60405180910390fd5b6200017e81620000ac565b50565b6007546001600160a01b03163314620001dd5760405162461bcd60e51b815260206004820181905260248201527f4f776e61626c653a2063616c6c6572206973206e6f7420746865206f776e657260448201526064016200016a565b565b6001600160a01b03811681146200017e57600080fd5b634e487b7160e01b600052604160045260246000fd5b600082601f8301126200021d57600080fd5b81516001600160401b03808211156200023a576200023a620001f5565b604051601f8301601f19908116603f01168101908282118183101715620002655762000265620001f5565b816040528381526020925086838588010111156200028257600080fd5b600091505b83821015620002a6578582018301518183018401529082019062000287565b600093810190920192909252949350505050565b60008060008060008060c08789031215620002d457600080fd5b8651620002e181620001df565b60208801519096506001600160401b0380821115620002ff57600080fd5b6200030d8a838b016200020b565b965060408901519150808211156200032457600080fd5b620003328a838b016200020b565b955060608901519150808211156200034957600080fd5b506200035889828a016200020b565b9350506080870151915060a08701516200037281620001df565b809150509295509295509295565b600181811c908216806200039557607f821691505b602082108103620003b657634e487b7160e01b600052602260045260246000fd5b50919050565b601f8211156200040a57600081815260208120601f850160051c81016020861015620003e55750805b601f850160051c820191505b818110156200040657828155600101620003f1565b5050505b505050565b81516001600160401b038111156200042b576200042b620001f5565b62000443816200043c845462000380565b84620003bc565b602080601f8311600181146200047b5760008415620004625750858301515b600019600386901b1c1916600185901b17855562000406565b600085815260208120601f198616915b82811015620004ac578886015182559484019460019091019084016200048b565b5085821015620004cb5787850151600019600388901b60f8161c191681555b5050505050600190811b01905550565b60805161293a6200051a6000396000818161037e0152818161084a015281816109cb01528181610b920152818161108101526110be015261293a6000f3fe6080604052600436106101cd5760003560e01c8063715018a6116100f757806395d89b4111610095578063b88d4fde11610064578063b88d4fde14610598578063c87b56dd146105b8578063e985e9c5146105d8578063f2fde38b146105f857600080fd5b806395d89b411461052d578063a035b1fe14610542578063a22cb46514610558578063b03478141461057857600080fd5b806381d12c58116100d157806381d12c581461047d5780638b58c569146104ad5780638cbc52d9146104ef5780638da5cb5b1461050f57600080fd5b8063715018a6146104335780637c65d71114610448578063813d1e151461045d57600080fd5b806323b872dd1161016f5780633c168eab1161013e5780633c168eab146103c057806342842e0e146103d35780636352211e146103f357806370a082311461041357600080fd5b806323b872dd1461032c5780632c6296b71461034c57806331b221cd1461036c57806333727c4d146103a057600080fd5b8063081812fc116101ab578063081812fc14610264578063095ea7b31461029c578063127e8e4d146102be57806320f38718146102de57600080fd5b806301ffc9a7146101d257806306fdde03146102075780630750b16314610229575b600080fd5b3480156101de57600080fd5b506101f26101ed366004611e82565b610618565b60405190151581526020015b60405180910390f35b34801561021357600080fd5b5061021c610643565b6040516101fe9190611eef565b34801561023557600080fd5b50610256610244366004611f02565b600f6020526000908152604090205481565b6040519081526020016101fe565b34801561027057600080fd5b5061028461027f366004611f02565b6106d5565b6040516001600160a01b0390911681526020016101fe565b3480156102a857600080fd5b506102bc6102b7366004611f37565b6106fc565b005b3480156102ca57600080fd5b506102566102d9366004611f02565b610816565b3480156102ea57600080fd5b506103146102f9366004611f02565b600e602052600090815260409020546001600160401b031681565b6040516001600160401b0390911681526020016101fe565b34801561033857600080fd5b506102bc610347366004611f61565b6108bc565b34801561035857600080fd5b5061021c610367366004611fe5565b6108ed565b34801561037857600080fd5b506102847f000000000000000000000000000000000000000000000000000000000000000081565b3480156103ac57600080fd5b506101f26103bb366004611f02565b6109b2565b6102bc6103ce366004611f37565b610a3e565b3480156103df57600080fd5b506102bc6103ee366004611f61565b610d06565b3480156103ff57600080fd5b5061028461040e366004611f02565b610d21565b34801561041f57600080fd5b5061025661042e366004612030565b610d81565b34801561043f57600080fd5b506102bc610e07565b34801561045457600080fd5b5061021c610e1b565b34801561046957600080fd5b506102bc61047836600461204b565b610ea9565b34801561048957600080fd5b5061049d610498366004611f02565b610ee0565b6040516101fe9493929190612087565b3480156104b957600080fd5b506104dd6104c8366004611f02565b600a6020526000908152604090205460ff1681565b60405160ff90911681526020016101fe565b3480156104fb57600080fd5b5061021c61050a366004612156565b611023565b34801561051b57600080fd5b506007546001600160a01b0316610284565b34801561053957600080fd5b5061021c611058565b34801561054e57600080fd5b50610256600b5481565b34801561056457600080fd5b506102bc6105733660046121be565b611067565b34801561058457600080fd5b506102bc6105933660046121ea565b611076565b3480156105a457600080fd5b506102bc6105b3366004612263565b611249565b3480156105c457600080fd5b5061021c6105d3366004611f02565b611281565b3480156105e457600080fd5b506101f26105f33660046122de565b611391565b34801561060457600080fd5b506102bc610613366004612030565b6113bf565b60006001600160e01b03198216632483248360e11b148061063d575061063d82611438565b92915050565b60606000805461065290612311565b80601f016020809104026020016040519081016040528092919081815260200182805461067e90612311565b80156106cb5780601f106106a0576101008083540402835291602001916106cb565b820191906000526020600020905b8154815290600101906020018083116106ae57829003601f168201915b5050505050905090565b60006106e082611488565b506000908152600460205260409020546001600160a01b031690565b600061070782610d21565b9050806001600160a01b0316836001600160a01b0316036107795760405162461bcd60e51b815260206004820152602160248201527f4552433732313a20617070726f76616c20746f2063757272656e74206f776e656044820152603960f91b60648201526084015b60405180910390fd5b336001600160a01b038216148061079557506107958133611391565b6108075760405162461bcd60e51b815260206004820152603d60248201527f4552433732313a20617070726f76652063616c6c6572206973206e6f7420746f60448201527f6b656e206f776e6572206f7220617070726f76656420666f7220616c6c0000006064820152608401610770565b61081183836114e7565b505050565b6000818152600e6020526040808220549051620e1d8d60e41b8152600481018490526001600160401b0390911660248201527f00000000000000000000000000000000000000000000000000000000000000006001600160a01b03169062e1d8d090604401602060405180830381865afa158015610898573d6000803e3d6000fd5b505050506040513d601f19601f8201168201806040525081019061063d919061234b565b6108c63382611555565b6108e25760405162461bcd60e51b815260040161077090612364565b6108118383836115b3565b6060600c600085815260200190815260200160002083836040516109129291906123b1565b9081526020016040518091039020805461092b90612311565b80601f016020809104026020016040519081016040528092919081815260200182805461095790612311565b80156109a45780601f10610979576101008083540402835291602001916109a4565b820191906000526020600020905b81548152906001019060200180831161098757829003601f168201915b505050505090509392505050565b6040516333727c4d60e01b8152600481018290526000907f00000000000000000000000000000000000000000000000000000000000000006001600160a01b0316906333727c4d90602401602060405180830381865afa158015610a1a573d6000803e3d6000fd5b505050506040513d601f19601f8201168201806040525081019061063d91906123c1565b600b543411610a8f5760405162461bcd60e51b815260206004820152601860248201527f496e636f7272656374204554482076616c75652073656e7400000000000000006044820152606401610770565b610a9d600880546001019055565b6000610aa860085490565b9050610ab2611717565b6000828152600a60205260409020805460ff191660ff92909216919091179055610adc838261178b565b600060098054610aeb90612311565b80601f0160208091040260200160405190810160405280929190818152602001828054610b1790612311565b8015610b645780601f10610b3957610100808354040283529160200191610b64565b820191906000526020600020905b815481529060010190602001808311610b4757829003601f168201915b5050506000868152600e6020526040808220549051632dca9c0360e11b815294955090936001600160a01b037f0000000000000000000000000000000000000000000000000000000000000000169350635b95380692503491610bd9918991889130916001600160401b0316906004016123de565b60206040518083038185885af1158015610bf7573d6000803e3d6000fd5b50505050506040513d601f19601f82011682018060405250810190610c1c919061234b565b6000818152600d6020526040902090915060028101610c3b848261247e565b5080546001600160a01b031916339081178255600182018690556000838152600f602052604090819020869055517fa0faead83d70148ae18b694377f9bef079251342ab90e14af0f9ef68b891269f91610c9c9185919089906009906125ba565b60405180910390a16000848152600a60209081526040918290205482516001600160a01b038a16815291820187905260ff168183015290517f5716925f2a990bb51e5354134a606547c86dc787be1a2729eef575fd0c2bea1e9181900360600190a1505050505050565b61081183838360405180602001604052806000815250611249565b6000818152600260205260408120546001600160a01b03168061063d5760405162461bcd60e51b8152602060048201526018602482015277115490cdcc8c4e881a5b9d985b1a59081d1bdad95b88125160421b6044820152606401610770565b60006001600160a01b038216610deb5760405162461bcd60e51b815260206004820152602960248201527f4552433732313a2061646472657373207a65726f206973206e6f7420612076616044820152683634b21037bbb732b960b91b6064820152608401610770565b506001600160a01b031660009081526003602052604090205490565b610e0f611916565b610e196000611970565b565b60098054610e2890612311565b80601f0160208091040260200160405190810160405280929190818152602001828054610e5490612311565b8015610ea15780601f10610e7657610100808354040283529160200191610ea1565b820191906000526020600020905b815481529060010190602001808311610e8457829003601f168201915b505050505081565b610eb1611916565b6000918252600e6020526040909120805467ffffffffffffffff19166001600160401b03909216919091179055565b600d602052600090815260409020805460018201546002830180546001600160a01b03909316939192610f1290612311565b80601f0160208091040260200160405190810160405280929190818152602001828054610f3e90612311565b8015610f8b5780601f10610f6057610100808354040283529160200191610f8b565b820191906000526020600020905b815481529060010190602001808311610f6e57829003601f168201915b505050505090806003018054610fa090612311565b80601f0160208091040260200160405190810160405280929190818152602001828054610fcc90612311565b80156110195780601f10610fee57610100808354040283529160200191611019565b820191906000526020600020905b815481529060010190602001808311610ffc57829003601f168201915b5050505050905084565b600c602090815260009283526040909220815180830184018051928152908401929093019190912091528054610e2890612311565b60606001805461065290612311565b6110723383836119c2565b5050565b336001600160a01b037f00000000000000000000000000000000000000000000000000000000000000001681146110f35760405163432e033760e11b81526001600160a01b037f00000000000000000000000000000000000000000000000000000000000000008116600483015282166024820152604401610770565b6000868152600d6020526040902080546001600160a01b031661114d5760405162461bcd60e51b815260206004820152601260248201527172657175657374206e6f742065786973747360701b6044820152606401610770565b6003810161115c8688836125f1565b508585600c6000846001015481526020019081526020016000208360020160405161118791906126b1565b908152602001604051809103902091826111a29291906125f1565b506111f6600f60008981526020019081526020016000205487878080601f016020809104026020016040519081016040528093929190818152602001838380828437600092019190915250611a9092505050565b7faf2b2381ddcb18a2b18a7826186fd216acdd9c852a8c7a9a49e7eab127f96ccf87826001015483600201898989896040516112389796959493929190612750565b60405180910390a150505050505050565b6112533383611555565b61126f5760405162461bcd60e51b815260040161077090612364565b61127b84848484611b5b565b50505050565b606061128c82611488565b600082815260066020526040812080546112a590612311565b80601f01602080910402602001604051908101604052809291908181526020018280546112d190612311565b801561131e5780601f106112f35761010080835404028352916020019161131e565b820191906000526020600020905b81548152906001019060200180831161130157829003601f168201915b50505050509050600061133c60408051602081019091526000815290565b9050805160000361134e575092915050565b8151156113805780826040516020016113689291906127a5565b60405160208183030381529060405292505050919050565b61138984611b8e565b949350505050565b6001600160a01b03918216600090815260056020908152604080832093909416825291909152205460ff1690565b6113c7611916565b6001600160a01b03811661142c5760405162461bcd60e51b815260206004820152602660248201527f4f776e61626c653a206e6577206f776e657220697320746865207a65726f206160448201526564647265737360d01b6064820152608401610770565b61143581611970565b50565b60006001600160e01b031982166380ac58cd60e01b148061146957506001600160e01b03198216635b5e139f60e01b145b8061063d57506301ffc9a760e01b6001600160e01b031983161461063d565b6000818152600260205260409020546001600160a01b03166114355760405162461bcd60e51b8152602060048201526018602482015277115490cdcc8c4e881a5b9d985b1a59081d1bdad95b88125160421b6044820152606401610770565b600081815260046020526040902080546001600160a01b0319166001600160a01b038416908117909155819061151c82610d21565b6001600160a01b03167f8c5be1e5ebec7d5bd14f71427d1e84f3dd0314c0f7b2291e5b200ac8c7c3b92560405160405180910390a45050565b60008061156183610d21565b9050806001600160a01b0316846001600160a01b0316148061158857506115888185611391565b806113895750836001600160a01b03166115a1846106d5565b6001600160a01b031614949350505050565b826001600160a01b03166115c682610d21565b6001600160a01b0316146115ec5760405162461bcd60e51b8152600401610770906127d4565b6001600160a01b03821661164e5760405162461bcd60e51b8152602060048201526024808201527f4552433732313a207472616e7366657220746f20746865207a65726f206164646044820152637265737360e01b6064820152608401610770565b826001600160a01b031661166182610d21565b6001600160a01b0316146116875760405162461bcd60e51b8152600401610770906127d4565b600081815260046020908152604080832080546001600160a01b03199081169091556001600160a01b0387811680865260038552838620805460001901905590871680865283862080546001019055868652600290945282852080549092168417909155905184937fddf252ad1be2c89b69c2b068fc378daa952ba7f163c4a11628f55a4df523b3ef91a4505050565b60008043423360405160200161175293929190928352602083019190915260601b6bffffffffffffffffffffffff1916604082015260540190565b60408051601f19818403018152919052805160209091012090506000611779606483612819565b61178490600161283b565b9392505050565b6001600160a01b0382166117e15760405162461bcd60e51b815260206004820181905260248201527f4552433732313a206d696e7420746f20746865207a65726f20616464726573736044820152606401610770565b6000818152600260205260409020546001600160a01b0316156118465760405162461bcd60e51b815260206004820152601c60248201527f4552433732313a20746f6b656e20616c7265616479206d696e746564000000006044820152606401610770565b6000818152600260205260409020546001600160a01b0316156118ab5760405162461bcd60e51b815260206004820152601c60248201527f4552433732313a20746f6b656e20616c7265616479206d696e746564000000006044820152606401610770565b6001600160a01b038216600081815260036020908152604080832080546001019055848352600290915280822080546001600160a01b0319168417905551839291907fddf252ad1be2c89b69c2b068fc378daa952ba7f163c4a11628f55a4df523b3ef908290a45050565b6007546001600160a01b03163314610e195760405162461bcd60e51b815260206004820181905260248201527f4f776e61626c653a2063616c6c6572206973206e6f7420746865206f776e65726044820152606401610770565b600780546001600160a01b038381166001600160a01b0319831681179093556040519116919082907f8be0079c531659141344cd1fd0a4f28419497f9722a3daafe3b4186f6b6457e090600090a35050565b816001600160a01b0316836001600160a01b031603611a235760405162461bcd60e51b815260206004820152601960248201527f4552433732313a20617070726f766520746f2063616c6c6572000000000000006044820152606401610770565b6001600160a01b03838116600081815260056020908152604080832094871680845294825291829020805460ff191686151590811790915591519182527f17307eab39ab6107e8899845ad3d59bd9653f200f220920489ca2b5937696c31910160405180910390a3505050565b6000828152600260205260409020546001600160a01b0316611b0b5760405162461bcd60e51b815260206004820152602e60248201527f45524337323155524953746f726167653a2055524920736574206f66206e6f6e60448201526d32bc34b9ba32b73a103a37b5b2b760911b6064820152608401610770565b6000828152600660205260409020611b23828261247e565b506040518281527ff8e1a15aba9398e019f0b49df1a4fde98ee17ae345cb5f6b5e2c27f5033e8ce79060200160405180910390a15050565b611b668484846115b3565b611b7284848484611c01565b61127b5760405162461bcd60e51b815260040161077090612862565b6060611b9982611488565b6000611bb060408051602081019091526000815290565b90506000815111611bd05760405180602001604052806000815250611784565b80611bda84611d02565b604051602001611beb9291906127a5565b6040516020818303038152906040529392505050565b60006001600160a01b0384163b15611cf757604051630a85bd0160e11b81526001600160a01b0385169063150b7a0290611c459033908990889088906004016128b4565b6020604051808303816000875af1925050508015611c80575060408051601f3d908101601f19168201909252611c7d918101906128e7565b60015b611cdd573d808015611cae576040519150601f19603f3d011682016040523d82523d6000602084013e611cb3565b606091505b508051600003611cd55760405162461bcd60e51b815260040161077090612862565b805181602001fd5b6001600160e01b031916630a85bd0160e11b149050611389565b506001949350505050565b60606000611d0f83611d94565b60010190506000816001600160401b03811115611d2e57611d2e6120cb565b6040519080825280601f01601f191660200182016040528015611d58576020820181803683370190505b5090508181016020015b600019016f181899199a1a9b1b9c1cb0b131b232b360811b600a86061a8153600a8504945084611d6257509392505050565b60008072184f03e93ff9f4daa797ed6e38ed64bf6a1f0160401b8310611dd35772184f03e93ff9f4daa797ed6e38ed64bf6a1f0160401b830492506040015b6d04ee2d6d415b85acef81000000008310611dff576d04ee2d6d415b85acef8100000000830492506020015b662386f26fc100008310611e1d57662386f26fc10000830492506010015b6305f5e1008310611e35576305f5e100830492506008015b6127108310611e4957612710830492506004015b60648310611e5b576064830492506002015b600a831061063d5760010192915050565b6001600160e01b03198116811461143557600080fd5b600060208284031215611e9457600080fd5b813561178481611e6c565b60005b83811015611eba578181015183820152602001611ea2565b50506000910152565b60008151808452611edb816020860160208601611e9f565b601f01601f19169290920160200192915050565b6020815260006117846020830184611ec3565b600060208284031215611f1457600080fd5b5035919050565b80356001600160a01b0381168114611f3257600080fd5b919050565b60008060408385031215611f4a57600080fd5b611f5383611f1b565b946020939093013593505050565b600080600060608486031215611f7657600080fd5b611f7f84611f1b565b9250611f8d60208501611f1b565b9150604084013590509250925092565b60008083601f840112611faf57600080fd5b5081356001600160401b03811115611fc657600080fd5b602083019150836020828501011115611fde57600080fd5b9250929050565b600080600060408486031215611ffa57600080fd5b8335925060208401356001600160401b0381111561201757600080fd5b61202386828701611f9d565b9497909650939450505050565b60006020828403121561204257600080fd5b61178482611f1b565b6000806040838503121561205e57600080fd5b8235915060208301356001600160401b038116811461207c57600080fd5b809150509250929050565b60018060a01b03851681528360208201526080604082015260006120ae6080830185611ec3565b82810360608401526120c08185611ec3565b979650505050505050565b634e487b7160e01b600052604160045260246000fd5b60006001600160401b03808411156120fb576120fb6120cb565b604051601f8501601f19908116603f01168101908282118183101715612123576121236120cb565b8160405280935085815286868601111561213c57600080fd5b858560208301376000602087830101525050509392505050565b6000806040838503121561216957600080fd5b8235915060208301356001600160401b0381111561218657600080fd5b8301601f8101851361219757600080fd5b6121a6858235602084016120e1565b9150509250929050565b801515811461143557600080fd5b600080604083850312156121d157600080fd5b6121da83611f1b565b9150602083013561207c816121b0565b60008060008060006060868803121561220257600080fd5b8535945060208601356001600160401b038082111561222057600080fd5b61222c89838a01611f9d565b9096509450604088013591508082111561224557600080fd5b5061225288828901611f9d565b969995985093965092949392505050565b6000806000806080858703121561227957600080fd5b61228285611f1b565b935061229060208601611f1b565b92506040850135915060608501356001600160401b038111156122b257600080fd5b8501601f810187136122c357600080fd5b6122d2878235602084016120e1565b91505092959194509250565b600080604083850312156122f157600080fd5b6122fa83611f1b565b915061230860208401611f1b565b90509250929050565b600181811c9082168061232557607f821691505b60208210810361234557634e487b7160e01b600052602260045260246000fd5b50919050565b60006020828403121561235d57600080fd5b5051919050565b6020808252602d908201527f4552433732313a2063616c6c6572206973206e6f7420746f6b656e206f776e6560408201526c1c881bdc88185c1c1c9bdd9959609a1b606082015260800190565b8183823760009101908152919050565b6000602082840312156123d357600080fd5b8151611784816121b0565b84815260a0602082015260006123f760a0830186611ec3565b6001600160a01b03949094166040830152506001600160401b039190911660608201528082036080909101526000815260200192915050565b601f82111561081157600081815260208120601f850160051c810160208610156124575750805b601f850160051c820191505b8181101561247657828155600101612463565b505050505050565b81516001600160401b03811115612497576124976120cb565b6124ab816124a58454612311565b84612430565b602080601f8311600181146124e057600084156124c85750858301515b600019600386901b1c1916600185901b178555612476565b600085815260208120601f198616915b8281101561250f578886015182559484019460019091019084016124f0565b508582101561252d5787850151600019600388901b60f8161c191681555b5050505050600190811b01905550565b6000815461254a81612311565b8085526020600183811680156125675760018114612581576125af565b60ff1985168884015283151560051b8801830195506125af565b866000528260002060005b858110156125a75781548a820186015290830190840161258c565b890184019650505b505050505092915050565b84815260018060a01b03841660208201528260408201526080606082015260006125e7608083018461253d565b9695505050505050565b6001600160401b03831115612608576126086120cb565b61261c836126168354612311565b83612430565b6000601f84116001811461265057600085156126385750838201355b600019600387901b1c1916600186901b1783556126aa565b600083815260209020601f19861690835b828110156126815786850135825560209485019460019092019101612661565b508682101561269e5760001960f88860031b161c19848701351681555b505060018560011b0183555b5050505050565b60008083546126bf81612311565b600182811680156126d757600181146126ec5761271b565b60ff198416875282151583028701945061271b565b8760005260208060002060005b858110156127125781548a8201529084019082016126f9565b50505082870194505b50929695505050505050565b81835281816020850137506000828201602090810191909152601f909101601f19169091010190565b87815286602082015260a06040820152600061276f60a083018861253d565b8281036060840152612782818789612727565b90508281036080840152612797818587612727565b9a9950505050505050505050565b600083516127b7818460208801611e9f565b8351908301906127cb818360208801611e9f565b01949350505050565b60208082526025908201527f4552433732313a207472616e736665722066726f6d20696e636f72726563742060408201526437bbb732b960d91b606082015260800190565b60008261283657634e487b7160e01b600052601260045260246000fd5b500690565b60ff818116838216019081111561063d57634e487b7160e01b600052601160045260246000fd5b60208082526032908201527f4552433732313a207472616e7366657220746f206e6f6e20455243373231526560408201527131b2b4bb32b91034b6b83632b6b2b73a32b960711b606082015260800190565b6001600160a01b03858116825284166020820152604081018390526080606082018190526000906125e790830184611ec3565b6000602082840312156128f957600080fd5b815161178481611e6c56fea264697066735822122011f7451b443ec0e21bcd54894d243f8bba288745a2443d4c9718fd9a371fb7f964736f6c63430008140033a2646970667358221220cb5f74a8d5a2c6cc8a31ad85df5e2213b3ed12b16cdc5b3c1f573966f33803cd64736f6c63430008140033",
    "linkReferences": {}
  },
  "methodIdentifiers": {
    "createNFT(string,string,string,uint256)": "ca1e217f",
    "deployedNFTs(uint256)": "13df8223",
    "getDeployedNFTs()": "b8889e64"
  },
  "id": 18
}